S012000043616C63756C61746F722E7372656308
S11300000C942A000C943F000C943F000C943F0085
S11300100C943F000C943F000C943F000C943F0060
S11300200C943F000C943F000C943F000C943F0050
S11300300C943F000C943F000C943F000C943F0040
S11300400C943F000C943F000C943F000C943F0030
S11300500C943F0011241FBECFE5D8E0DEBFCDBF16
S113006010E0A0E6B0E0E2E8FAE002C005900D92EC
S1130070A637B107D9F70E9445030C943F050C94A9
S11300800000CF92DF92EF92FF92CF93DF936B0148
S1130090E12CF12CC80ED91EE11CF11C66E081E0B4
S11300A00E947E02D701C6012C2D392F4A2F5B2FC7
S11300B060E070E080E090E00E94AD02DF91CF91BB
S11300C0FF90EF90DF90CF900895CF92DF92EF9260
S11300D0FF92CF93DF938617970778F46B01E12C97
S11300E0F12CC81AD90AE108F10865E081E00E9400
S11300F07E028DE20E94910208C0A0E0B0E06C0193
S11301007D01C61AD70AE108F10866E081E00E9481
S11301107E02D701C6012C2D392F4A2F5B2F60E0B8
S113012070E080E090E00E94AD02DF91CF91FF90FB
S1130130EF90DF90CF900895CF92DF92EF92FF92ED
S1130140CF93DF939C01DB010E94C5046B017C010A
S113015066E081E00E947E02D701C6012C2D392F72
S11301604A2F5B2F60E070E080E090E00E94AD02D7
S1130170DF91CF91FF90EF90DF90CF9008954F9251
S11301805F926F927F928F929F92AF92BF92CF9223
S1130190DF92EF92FF92CF93DF93AB019C01A4E631
S11301A0B0E00E94C5049A0140E050E00E94A3041C
S11301B049015A0166E081E00E947E02C501B40152
S11301C024E630E040E050E00E94A3042B013C010F
S11301D0DA01C901392F4A2F5B2F60E070E080E01B
S11301E090E00E94AD028EE20E9491020F2EFAE08E
S11301F0CF2ED12CE12CF12CF02DC301B201A7019B
S113020096010E94A304DA01C901392F4A2F5B2FFA
S113021060E070E080E090E00E94AD02C501B401AE
S1130220A70196010E94A304DC01CB01282F392FDA
S11302304A2F5B2F60E070E080E090E00E94AD0206
S1130240DF91CF91FF90EF90DF90CF90BF90AF9070
S11302509F908F907F906F905F904F9008950E9431
S1130260C6010E9438028FE99FE00197F1F700C0B0
S1130270000060E080E00E947E0280E690E00E9440
S113028094029FEF21EE84E0915020408040E1F7FA
S113029000C000000E94410360E080E00E947E02F2
S11302A0D12CE12C00E010E0D0E06894FF24F5F8B4
S11302B00E94E101C82F8E32D9F380ED8C0F8A3071
S11302C0C0F4D13019F40E944103D0E0C801880F72
S11302D0991F000F111F000F111F000F111F080F8E
S11302E0191F0C0F111D005311098C2F0E9491022C
S11302F0DFCFCB3231F0CD3221F0CA3211F0CF3220
S113030049F48C2F0E949102D02EE12EFC2E00E0A5
S113031010E0CECFCD33A1F58C2F0E9491029BE249
S1130320F91669F09F1520F02AE2F216A1F01EC01A
S11303308DE2F81651F09FE2F91699F017C0B80152
S11303408D2D9E2D0E94410011C0B8018D2D9E2D32
S11303500E9465000BC0B8018D2D9E2D0E949C004B
S113036005C0B8018D2D9E2D0E94BF0060E080E085
S11303700E947E02D12CE12C00E010E0D1E098CF65
S1130380C33609F095CF0E94410392CFCF93DF93F8
S1130390C0E012C041E06C2F83E00E947203D4E0FD
S11303A0DC0F40E06D2F83E00E94720341E06D2F6B
S11303B083E00E94F803CF5FC43060F3DF91CF91F4
S11303C008950F931F93CF93DF930EE210E029C09B
S11303D040E0612F83E00E94F803D0E01AC0C4E03B
S11303E0CD0F6C2F83E00E946E04811111C0E12FA8
S11303F0F0E0EE0FFF1FEE0FFF1FEB59FF4FED0F65
S1130400F11D00816C2F83E00E946E048823D1F3D8
S1130410DF5FD43020F341E0612F83E00E94F803D2
S11304201F5F1430A8F2802FDF91CF911F910F919D
S11304300895682F80E00E94E80340E060E081E0D6
S11304400E94F80340E061E081E00E94F80341E08B
S113045062E081E00E94F8038FE99FE00197F1F7E1
S113046000C0000040E062E081E00E94F8030895CB
S113047061E080E00E944A0341E060E081E00E9484
S1130480720341E061E081E00E94720341E062E0B6
S113049081E00E94720360E080E00E94E80388E348
S11304A00E9419028CE00E94190286E00E9419023F
S11304B081E00E94190280E80E9419020895682FC1
S11304C080E00E94E80341E060E081E00E94F803DC
S11304D040E061E081E00E94F80341E062E081E0F5
S11304E00E94F8038FE99FE00197F1F700C0000034
S11304F040E062E081E00E94F8030895882329F037
S1130500813031F080E090E005C080E890E002C0E6
S113051080EC90E0603110F4860F911D0E94190266
S113052008950E945F0208950F931F93CF938C0147
S1130530C0E009C00E945F028FEC97E00197F1F7D9
S113054000C00000CF5FF801EC0FF11D8081811124
S1130550F1CFCF911F910F9108952F923F924F9217
S11305605F926F927F928F929F92AF92BF92CF923F
S1130570DF92EF92FF920F931F93CF93DF93CDB748
S1130580DEB72D970FB6F894DEBF0FBECDBF2B8715
S11305903C874D87852E762E672E382E292EA0E097
S11305A00E943305B9F580E30E945F0251C0492CD3
S11305B0512C0F2EFAE0AF2EF02DB12CC12CD12CE2
S11305C0E12CF12C00E010E02B853C854D85582D65
S11305D0672D762D832D922D0E94D404E1E0F0E066
S11305E0EC0FFD1FE40DF51D205D20832B853C855C
S11305F04D85582D672D762D832D922D0E94D6047E
S11306002B873C874D87852E762E672E382E292EF4
S1130610939401C0912C2B853C854D85582D672DD5
S1130620762D832D922DA0E00E94330509F0BFCFD3
S11306300DC0E92DF0E0319781E090E08C0F9D1F13
S1130640E80FF91F80810E945F029A949110F1CF04
S11306502D960FB6F894DEBF0FBECDBFDF91CF91BC
S11306601F910F91FF90EF90DF90CF90BF90AF90CC
S11306709F908F907F906F905F904F903F902F90BE
S1130680089581E00E94190208950E942F0180E0DC
S113069090E008956130A1F4813049F028F082306F
S11306A049F0833051F008958FEF8ABB08958FEF9E
S11306B087BB08958FEF84BB08958FEF81BB0895A6
S11306C061110FC0813041F028F0823039F083305D
S11306D039F008951ABA089517BA089514BA089506
S11306E011BA0895843008F072C0683008F06FC001
S11306F04130A1F5813089F028F08230C9F083308F
S113070011F108952AB381E090E002C0880F991F87
S11307106A95E2F7822B8ABB089527B381E090E0C3
S113072002C0880F991F6A95E2F7822B87BB089550
S113073024B381E090E002C0880F991F6A95E2F724
S1130740822B84BB089521B381E090E002C0880F1E
S1130750991F6A95E2F7822B81BB0895411137C036
S1130760813091F028F08230D9F0833029F1089556
S11307702AB381E090E002C0880F991F6A95E2F7DE
S1130780809582238ABB089527B381E090E002C05C
S1130790880F991F6A95E2F78095822387BB089595
S11307A024B381E090E002C0880F991F6A95E2F7B4
S11307B08095822384BB089521B381E090E002C038
S11307C0880F991F6A95E2F78095822381BB08956B
S11307D0813041F028F0823039F0833039F00895C7
S11307E06BBB089568BB089565BB089562BB08950B
S11307F0843008F072C0683008F06FC04130A1F551
S1130800813089F028F08230C9F0833011F10895E5
S11308102BB381E090E002C0880F991F6A95E2F73C
S1130820822B8BBB089528B381E090E002C0880F2F
S1130830991F6A95E2F7822B88BB089525B381E05E
S113084090E002C0880F991F6A95E2F7822B85BB5E
S1130850089522B381E090E002C0880F991F6A9541
S1130860E2F7822B82BB0895411137C0813091F0A9
S113087028F08230D9F0833029F108952BB381E038
S113088090E002C0880F991F6A95E2F78095822351
S11308908BBB089528B381E090E002C0880F991FB4
S11308A06A95E2F78095822388BB089525B381E099
S11308B090E002C0880F991F6A95E2F78095822321
S11308C085BB089522B381E090E002C0880F991F90
S11308D06A95E2F78095822382BB0895843088F577
S11308E0683078F5813081F028F08230B9F08330B7
S11308F0F9F027C089B390E002C0959587956A9571
S1130900E2F7982F91701DC086B390E002C09595D0
S113091087956A95E2F7982F917013C083B390E09E
S113092002C0959587956A95E2F7982F917009C052
S113093080B390E002C0959587956A95E2F7982F69
S11309409170892F0895A1E21A2EAA1BBB1BFD01E9
S11309500DC0AA1FBB1FEE1FFF1FA217B307E4079A
S1130960F50720F0A21BB30BE40BF50B661F771FF2
S1130970881F991F1A9469F76095709580959095D2
S11309809B01AC01BD01CF010895A29FB001B39FAB
S1130990C001A39F700D811D1124911DB29F700D84
S11309A0811D1124911D0895689401C0E8948F92CB
S11309B09F92CF93DF930E94E204DF91CF919F90A7
S11309C08F90089588249924F401E401B0E49F935E
S11309D0AA279A158B049C04ED05FE05CF05D007C4
S11309E0A10798F4AD2FDC2FCF2FFE2FE92D982CE3
S11309F0892E982F872F762F652F542F432F322F30
S1130A002227B85031F7BF9127C01B2EBF91BB27B7
S1130A10220F331F441F551F661F771F881F991FFE
S1130A20881C991CEE1FFF1FCC1FDD1FAA1FBB1FB4
S1130A308A149B04EC05FD05CE05DF05A007B1076C
S1130A4048F08A189B08EC09FD09CE09DF09A00BC0
S1130A50B10B21601A94E1F62EF49401AF01BE01AA
S1130A60CD01000C08950024A7FD00942A17300539
S1130A704005500560057005800590050895F894BB
S1050A80FFCFA2
S1130A8243414C43003738392F3435362A31323317
S1090A922D63303D2B0032
S9030000FC
